{
  "contractName": "CityProjects",
  "abi": [
    {
      "constant": false,
      "inputs": [],
      "name": "renounceOwnership",
      "outputs": [],
      "payable": false,
      "stateMutability": "nonpayable",
      "type": "function"
    },
    {
      "constant": true,
      "inputs": [],
      "name": "owner",
      "outputs": [
        {
          "name": "",
          "type": "address"
        }
      ],
      "payable": false,
      "stateMutability": "view",
      "type": "function"
    },
    {
      "constant": true,
      "inputs": [],
      "name": "isOwner",
      "outputs": [
        {
          "name": "",
          "type": "bool"
        }
      ],
      "payable": false,
      "stateMutability": "view",
      "type": "function"
    },
    {
      "constant": false,
      "inputs": [
        {
          "name": "newOwner",
          "type": "address"
        }
      ],
      "name": "transferOwnership",
      "outputs": [],
      "payable": false,
      "stateMutability": "nonpayable",
      "type": "function"
    },
    {
      "anonymous": false,
      "inputs": [
        {
          "indexed": true,
          "name": "previousOwner",
          "type": "address"
        },
        {
          "indexed": true,
          "name": "newOwner",
          "type": "address"
        }
      ],
      "name": "OwnershipTransferred",
      "type": "event"
    },
    {
      "constant": false,
      "inputs": [
        {
          "name": "_name",
          "type": "string"
        },
        {
          "name": "_minAmount",
          "type": "uint256"
        }
      ],
      "name": "newProject",
      "outputs": [
        {
          "name": "",
          "type": "uint256"
        }
      ],
      "payable": false,
      "stateMutability": "nonpayable",
      "type": "function"
    },
    {
      "constant": true,
      "inputs": [],
      "name": "getLength",
      "outputs": [
        {
          "name": "",
          "type": "uint256"
        }
      ],
      "payable": false,
      "stateMutability": "view",
      "type": "function"
    },
    {
      "constant": false,
      "inputs": [
        {
          "name": "_index",
          "type": "uint256"
        },
        {
          "name": "_name",
          "type": "string"
        },
        {
          "name": "_minAmount",
          "type": "uint256"
        },
        {
          "name": "_funding",
          "type": "uint256"
        }
      ],
      "name": "editProject",
      "outputs": [],
      "payable": false,
      "stateMutability": "nonpayable",
      "type": "function"
    },
    {
      "constant": true,
      "inputs": [
        {
          "name": "_id",
          "type": "uint256"
        }
      ],
      "name": "getFunding",
      "outputs": [
        {
          "name": "",
          "type": "uint256"
        }
      ],
      "payable": false,
      "stateMutability": "view",
      "type": "function"
    },
    {
      "constant": true,
      "inputs": [
        {
          "name": "_id",
          "type": "uint256"
        }
      ],
      "name": "getMinAmount",
      "outputs": [
        {
          "name": "",
          "type": "uint256"
        }
      ],
      "payable": false,
      "stateMutability": "view",
      "type": "function"
    },
    {
      "constant": false,
      "inputs": [
        {
          "name": "_id",
          "type": "uint256"
        },
        {
          "name": "_amount",
          "type": "uint256"
        }
      ],
      "name": "addFunds",
      "outputs": [
        {
          "name": "",
          "type": "uint256"
        }
      ],
      "payable": false,
      "stateMutability": "nonpayable",
      "type": "function"
    }
  ],
  "bytecode": "0x6080604052336000806101000a81548173ffffffffffffffffffffffffffffffffffffffff021916908373ffffffffffffffffffffffffffffffffffffffff1602179055506000809054906101000a900473ffffffffffffffffffffffffffffffffffffffff1673ffffffffffffffffffffffffffffffffffffffff16600073ffffffffffffffffffffffffffffffffffffffff167f8be0079c531659141344cd1fd0a4f28419497f9722a3daafe3b4186f6b6457e060405160405180910390a3610e07806100cf6000396000f3fe608060405234801561001057600080fd5b506004361061009e5760003560e01c80638f32d59b116100665780638f32d59b1461025e578063be1c766b14610280578063be20ffa61461029e578063ebed4bd414610377578063f2fde38b146103b95761009e565b80632f6dc41c146100a35780633796ff1b146100e5578063715018a6146101be57806385f45250146101c85780638da5cb5b14610214575b600080fd5b6100cf600480360360208110156100b957600080fd5b81019080803590602001909291905050506103fd565b6040518082815260200191505060405180910390f35b6101bc600480360360808110156100fb57600080fd5b81019080803590602001909291908035906020019064010000000081111561012257600080fd5b82018360208201111561013457600080fd5b8035906020019184600183028401116401000000008311171561015657600080fd5b91908080601f016020809104026020016040519081016040528093929190818152602001838380828437600081840152601f19601f820116905080830192505050505050509192919290803590602001909291908035906020019092919050505061049f565b005b6101c6610612565b005b6101fe600480360360408110156101de57600080fd5b81019080803590602001909291908035906020019092919050505061074b565b6040518082815260200191505060405180910390f35b61021c610890565b604051808273ffffffffffffffffffffffffffffffffffffffff1673ffffffffffffffffffffffffffffffffffffffff16815260200191505060405180910390f35b6102666108b9565b604051808215151515815260200191505060405180910390f35b610288610910565b6040518082815260200191505060405180910390f35b610361600480360360408110156102b457600080fd5b81019080803590602001906401000000008111156102d157600080fd5b8201836020820111156102e357600080fd5b8035906020019184600183028401116401000000008311171561030557600080fd5b91908080601f016020809104026020016040519081016040528093929190818152602001838380828437600081840152601f19601f8201169050808301925050505050505091929192908035906020019092919050505061091d565b6040518082815260200191505060405180910390f35b6103a36004803603602081101561038d57600080fd5b8101908080359060200190929190505050610a24565b6040518082815260200191505060405180910390f35b6103fb600480360360208110156103cf57600080fd5b81019080803573ffffffffffffffffffffffffffffffffffffffff169060200190929190505050610ac6565b005b60006001805490508210610479576040517f08c379a00000000000000000000000000000000000000000000000000000000081526004018080602001828103825260108152602001807f4964206f7574206f6620626f756e64730000000000000000000000000000000081525060200191505060405180910390fd5b6001828154811061048657fe5b9060005260206000209060030201600101549050919050565b6104a76108b9565b610519576040517f08c379a00000000000000000000000000000000000000000000000000000000081526004018080602001828103825260208152602001807f4f776e61626c653a2063616c6c6572206973206e6f7420746865206f776e657281525060200191505060405180910390fd5b6001805490508410610593576040517f08c379a00000000000000000000000000000000000000000000000000000000081526004018080602001828103825260138152602001807f496e646578206f7574206f6620626f756e64730000000000000000000000000081525060200191505060405180910390fd5b82600185815481106105a157fe5b906000526020600020906003020160000190805190602001906105c5929190610c90565b5081600185815481106105d457fe5b90600052602060002090600302016001018190555080600185815481106105f757fe5b90600052602060002090600302016002018190555050505050565b61061a6108b9565b61068c576040517f08c379a00000000000000000000000000000000000000000000000000000000081526004018080602001828103825260208152602001807f4f776e61626c653a2063616c6c6572206973206e6f7420746865206f776e657281525060200191505060405180910390fd5b600073ffffffffffffffffffffffffffffffffffffffff166000809054906101000a900473ffffffffffffffffffffffffffffffffffffffff1673ffffffffffffffffffffffffffffffffffffffff167f8be0079c531659141344cd1fd0a4f28419497f9722a3daafe3b4186f6b6457e060405160405180910390a360008060006101000a81548173ffffffffffffffffffffffffffffffffffffffff021916908373ffffffffffffffffffffffffffffffffffffffff160217905550565b600060018054905083106107c7576040517f08c379a00000000000000000000000000000000000000000000000000000000081526004018080602001828103825260108152602001807f4964206f7574206f6620626f756e64730000000000000000000000000000000081525060200191505060405180910390fd5b6000821161083d576040517f08c379a000000000000000000000000000000000000000000000000000000000815260040180806020018281038252600b8152602001807f4d757374206265203e203000000000000000000000000000000000000000000081525060200191505060405180910390fd5b816001848154811061084b57fe5b9060005260206000209060030201600201600082825401925050819055506001838154811061087657fe5b906000526020600020906003020160020154905092915050565b60008060009054906101000a900473ffffffffffffffffffffffffffffffffffffffff16905090565b60008060009054906101000a900473ffffffffffffffffffffffffffffffffffffffff1673ffffffffffffffffffffffffffffffffffffffff163373ffffffffffffffffffffffffffffffffffffffff1614905090565b6000600180549050905090565b60006109276108b9565b610999576040517f08c379a00000000000000000000000000000000000000000000000000000000081526004018080602001828103825260208152602001807f4f776e61626c653a2063616c6c6572206973206e6f7420746865206f776e657281525060200191505060405180910390fd5b6001604051806060016040528085815260200184815260200160008152509080600181540180825580915050906001820390600052602060002090600302016000909192909190915060008201518160000190805190602001906109fe929190610d10565b506020820151816001015560408201518160020155505050600180549050905092915050565b60006001805490508210610aa0576040517f08c379a00000000000000000000000000000000000000000000000000000000081526004018080602001828103825260108152602001807f4964206f7574206f6620626f756e64730000000000000000000000000000000081525060200191505060405180910390fd5b60018281548110610aad57fe5b9060005260206000209060030201600201549050919050565b610ace6108b9565b610b40576040517f08c379a00000000000000000000000000000000000000000000000000000000081526004018080602001828103825260208152602001807f4f776e61626c653a2063616c6c6572206973206e6f7420746865206f776e657281525060200191505060405180910390fd5b610b4981610b4c565b50565b600073ffffffffffffffffffffffffffffffffffffffff168173ffffffffffffffffffffffffffffffffffffffff161415610bd2576040517f08c379a0000000000000000000000000000000000000000000000000000000008152600401808060200182810382526026815260200180610db66026913960400191505060405180910390fd5b8073ffffffffffffffffffffffffffffffffffffffff166000809054906101000a900473ffffffffffffffffffffffffffffffffffffffff1673ffffffffffffffffffffffffffffffffffffffff167f8be0079c531659141344cd1fd0a4f28419497f9722a3daafe3b4186f6b6457e060405160405180910390a3806000806101000a81548173ffffffffffffffffffffffffffffffffffffffff021916908373ffffffffffffffffffffffffffffffffffffffff16021790555050565b828054600181600116156101000203166002900490600052602060002090601f016020900481019282601f10610cd157805160ff1916838001178555610cff565b82800160010185558215610cff579182015b82811115610cfe578251825591602001919060010190610ce3565b5b509050610d0c9190610d90565b5090565b828054600181600116156101000203166002900490600052602060002090601f016020900481019282601f10610d5157805160ff1916838001178555610d7f565b82800160010185558215610d7f579182015b82811115610d7e578251825591602001919060010190610d63565b5b509050610d8c9190610d90565b5090565b610db291905b80821115610dae576000816000905550600101610d96565b5090565b9056fe4f776e61626c653a206e6577206f776e657220697320746865207a65726f2061646472657373a165627a7a723058209e6da6743b08dedd7ff820e65f6bf94d1788e2c20912f3c5c09f6b81376891f10029",
  "source": "pragma solidity ^0.5.0;\n\nimport \"@openzeppelin/contracts/ownership/Ownable.sol\";\n\n\ncontract CityProjects is Ownable {\n\n  struct Project {\n    string name;\n    uint minAmount;\n    uint funding;\n  }\n\n  Project[] projects;\n\n  function newProject(string memory _name, uint _minAmount) public onlyOwner returns (uint) {\n    projects.push(Project(_name, _minAmount, 0));\n    return projects.length;\n  }\n\n  function getLength() public view returns (uint) {\n    return projects.length;\n  }\n\n  function editProject(uint _index, string memory _name, uint _minAmount, uint _funding) public onlyOwner {\n    require(_index < projects.length, \"Index out of bounds\");\n\n    projects[_index].name = _name;\n    projects[_index].minAmount = _minAmount;\n    projects[_index].funding = _funding;\n  }\n\n  function getFunding(uint _id) public view returns (uint) {\n    require(_id < projects.length, \"Id out of bounds\");\n    return projects[_id].funding;\n  }\n\n  function getMinAmount(uint _id) public view returns (uint) {\n    require(_id < projects.length, \"Id out of bounds\");\n    return projects[_id].minAmount;\n  }\n\n  function addFunds(uint _id, uint _amount) public returns(uint) {\n    require(_id < projects.length, \"Id out of bounds\");\n    require(_amount > 0, \"Must be > 0\");\n\n    projects[_id].funding += _amount;\n    return projects[_id].funding;\n  }\n\n\n\n}\n",
  "sourcePath": "/Users/christophn/projects/ethberlinzwei-greencity/contracts/contracts/CityProjects.sol",
  "compiler": {
    "name": "solc",
    "version": "0.5.8+commit.23d335f2.Emscripten.clang"
  },
  "schemaVersion": "3.0.13",
  "updatedAt": "2019-08-24T16:12:21.552Z",
  "devdoc": {
    "methods": {
      "isOwner()": {
        "details": "Returns true if the caller is the current owner."
      },
      "owner()": {
        "details": "Returns the address of the current owner."
      },
      "renounceOwnership()": {
        "details": "Leaves the contract without owner. It will not be possible to call `onlyOwner` functions anymore. Can only be called by the current owner.     * > Note: Renouncing ownership will leave the contract without an owner, thereby removing any functionality that is only available to the owner."
      },
      "transferOwnership(address)": {
        "details": "Transfers ownership of the contract to a new account (`newOwner`). Can only be called by the current owner."
      }
    }
  },
  "userdoc": {
    "methods": {}
  }
}